:020000040000FA
:100000000C9435000C945D000C945D000C945D0024
:100010000C945D000C945D000C945D000C945D00EC
:100020000C945D000C945D000C945D000C945D00DC
:100030000C945D000C945D000C945D000C945D00CC
:100040000C9487010C945D000C94F7010C94D10181
:100050000C945D000C945D000C945D000C945D00AC
:100060000C945D000C945D000C0311241FBECFEFB7
:10007000D8E0DEBFCDBF11E0A0E0B1E0E0E9F8E0FC
:1000800002C005900D92AC38B107D9F723E0ACE877
:10009000B1E001C01D92A233B207E1F710E0C5E361
:1000A000D0E004C02197FE010E944004C433D10770
:1000B000C9F70E9429020C9446040C940000AF92E8
:1000C000BF92CF92DF92EF92FF920F931F93CF9345
:1000D000DF936C017B018B01040F151FEB015E01A7
:1000E000AE18BF08C017D10759F06991D601ED913C
:1000F000FC910190F081E02DC6010995892B79F7DB
:10010000C501DF91CF911F910F91FF90EF90DF908C
:10011000CF90BF90AF900895FC01538D448D252F53
:1001200030E0842F90E0821B930B541710F0CF9691
:10013000089501970895FC01918D828D981761F0C3
:10014000A28DAE0FBF2FB11D5D968C91928D9F5FDA
:100150009F73928F90E008958FEF9FEF0895FC01B9
:10016000918D828D981731F0828DE80FF11D858D6C
:1001700090E008958FEF9FEF0895FC01918D228DFF
:10018000892F90E0805C9F4F821B91098F73992784
:10019000089585E992E00E94BD0021E0892B09F4D1
:1001A00020E0822F089580E090E0892B29F00E94C2
:1001B000C90081110C9400000895FC01A48DA80FC2
:1001C000B92FB11DA35ABF4F2C91848D90E0019699
:1001D0008F739927848FA689B7892C93A089B189B9
:1001E0008C91837080648C93938D848D981306C05A
:1001F0000288F389E02D80818F7D80830895EF92BE
:10020000FF920F931F93CF93DF93EC0181E0888FD0
:100210009B8D8C8D98131AC0E889F989808185FFA0
:1002200015C09FB7F894EE89FF896083E889F98942
:1002300080818370806480839FBF81E090E0DF9144
:10024000CF911F910F91FF90EF900895F62E0B8D97
:1002500010E00F5F1F4F0F731127E02E8C8D8E1152
:100260000CC00FB607FCFACFE889F989808185FFB9
:10027000F5CFCE010E94DD00F1CFEB8DEC0FFD2F0D
:10028000F11DE35AFF4FF0829FB7F8940B8FEA8974
:10029000FB8980818062CFCFCF93DF93EC01888D83
:1002A0008823B9F0AA89BB89E889F9898C9185FDF1
:1002B00003C0808186FD0DC00FB607FCF7CF8C917F
:1002C00085FFF2CF808185FFEDCFCE010E94DD005A
:1002D000E9CFDF91CF910895FC0101900020E9F76B
:1002E0003197AF01481B590BBC0185E992E00C9492
:1002F0005F00CF93DF930E946C01EC0186E191E0F7
:100300000E946C018C0F9D1FDF91CF9108951F9269
:100310000F920FB60F9211242F933F938F939F93B9
:10032000AF93BF938091910290919202A09193021A
:10033000B09194023091900223E0230F2D3758F5AD
:100340000196A11DB11D209390028093910290937C
:100350009202A0939302B093940280918C029091A8
:100360008D02A0918E02B0918F020196A11DB11D48
:1003700080938C0290938D02A0938E02B0938F0293
:10038000BF91AF919F918F913F912F910F900FBE91
:100390000F901F90189526E8230F0296A11DB11DFE
:1003A000D2CF1F920F920FB60F9211242F933F932B
:1003B0004F935F936F937F938F939F93AF93BF936D
:1003C000EF93FF9385E992E00E94DD00FF91EF91AA
:1003D000BF91AF919F918F917F916F915F914F915D
:1003E0003F912F910F900FBE0F901F9018951F9265
:1003F0000F920FB60F9211242F938F939F93EF9329
:10040000FF93E091A502F091A6028081E091AB02FA
:10041000F091AC0282FD1BC090818091AE028F5F93
:100420008F732091AF02821741F0E091AE02F0E0AD
:10043000EB56FD4F958F8093AE02FF91EF919F9108
:100440008F912F910F900FBE0F901F901895808164
:10045000F4CFCF93DF93CDB7DEB7A1970FB6F89463
:10046000DEBF0FBECDBF789484B5826084BD84B5F5
:10047000816084BD85B5826085BD85B5816085BD9F
:1004800080916E00816080936E0010928100809157
:1004900081008260809381008091810081608093DF
:1004A0008100809180008160809380008091B10004
:1004B00084608093B1008091B00081608093B0002F
:1004C00080917A00846080937A0080917A008260C3
:1004D00080937A0080917A00816080937A00809185
:1004E0007A00806880937A001092C100E091A502A2
:1004F000F091A60282E08083E091A102F091A20235
:100500001082E091A302F091A4028FEC80831092FC
:10051000AD02E091A902F091AA0286E08083E09109
:10052000A702F091A802808180618083E091A702F8
:10053000F091A802808188608083E091A702F09109
:10054000A802808180688083E091A702F091A802D0
:1005500080818F7D808389E191E00E94790182E32F
:1005600091E00E9479019CE8E92E91E0F92E870143
:10057000812C912C54018A940E948503A501940139
:100580000E94DD03F80161938F01F2E00C381F0730
:1005900099F787E491E00E9479018AE0882E912CF6
:1005A000A12CB12CF70121917F0130E050E040E017
:1005B00019A26E01F1E2CF0ED11CCA01B901A50149
:1005C00094010E940F04605DF60162936F01211592
:1005D00031054105510589F7309719F0CF010E9487
:1005E0006C0186E791E00E946C010E151F05D1F6A3
:1005F00086E191E00E946C0188E791E00E94790118
:1006000000E010E001151105E9F30E94C9008823FC
:10061000C9F30E940000F6CFE5E9F2E013821282EE
:1006200088EE93E0A0E0B0E084839583A683B7834F
:1006300088E091E09183808385EC90E095878487C2
:1006400084EC90E09787868780EC90E0918B808B9C
:1006500081EC90E0938B828B82EC90E0958B848B85
:1006600086EC90E0978B868B118E128E138E148EF3
:1006700008958F929F92AF92BF92CF92DF92EF92A6
:10068000FF92CF93DF93EC01688179818A819B810E
:10069000611571058105910521F464E279ED8BE521
:1006A00097E02DE133EF41E050E00E94DD03490186
:1006B0005A019B01AC01A7EAB1E40E94FC036B0163
:1006C0007C01ACEEB4EFA50194010E940A04C60EB1
:1006D000D71EE81EF91EF7FE06C081E0C81AD10831
:1006E000E10880E8F80AC882D982EA82FB82C70161
:1006F000B6019F77DF91CF91FF90EF90DF90CF9081
:10070000BF90AF909F908F9008958F929F92AF92DD
:10071000BF92CF92DF92EF92FF92609100017091B1
:10072000010180910201909103016115710581051C
:10073000910521F464E279ED8BE597E02DE133EF4B
:1007400041E050E00E94DD0349015A019B01AC01E8
:10075000A7EAB1E40E94FC036B017C01ACEEB4EFAC
:10076000A50194010E940A04C60ED71EE81EF91EB8
:10077000F7FE06C081E0C81AD108E10880E8F80A4F
:10078000C0920001D0920101E0920201F0920301B7
:10079000C701B6019F77FF90EF90DF90CF90BF9099
:1007A000AF909F908F900895609300017093010126
:1007B00080930201909303010895052E97FB1EF488
:1007C00000940E94F40357FD07D00E940F0407FC19
:1007D00003D04EF40C94F403509540953095219538
:1007E0003F4F4F4F5F4F089590958095709561955D
:1007F0007F4F8F4F9F4F08950E943104A59F900D0A
:10080000B49F900DA49F800D911D11240895B7FFF2
:100810000C94FC030E94FC03821B930B0895A1E23D
:100820001A2EAA1BBB1BFD010DC0AA1FBB1FEE1F6A
:10083000FF1FA217B307E407F50720F0A21BB30BB5
:10084000E40BF50B661F771F881F991F1A9469F731
:1008500060957095809590959B01AC01BD01CF018D
:100860000895A29FB001B39FC001A39F700D811D89
:100870001124911DB29F700D811D1124911D0895A9
:10088000EE0FFF1F0590F491E02D0994F894FFCF2F
:100890000100000000000000FF005F008C004C0120
:1008A000BD009B00AF000D0A0041726475696E6F58
:1008B0002044726976657220456D756C6174696F4C
:1008C0006E00416C6C6F636174696E67206D656D5D
:1008D0006F72792E2E2E00506572666F726D696E82
:1008E00067206F7065726174696F6E7320757369CC
:1008F0006E6720746865206D656D6F727920627512
:10090000666665723A0020005265717565737420E1
:0C091000636F6D706C657465642E0000F0
:107E0000112484B714BE81FFF0D085E080938100F7
:107E100082E08093C00088E18093C10086E0809377
:107E2000C20080E18093C4008EE0C9D0259A86E02C
:107E300020E33CEF91E0309385002093840096BBD3
:107E4000B09BFECF1D9AA8958150A9F7CC24DD24C4
:107E500088248394B5E0AB2EA1E19A2EF3E0BF2EE7
:107E6000A2D0813461F49FD0082FAFD0023811F036
:107E7000013811F484E001C083E08DD089C08234E0
:107E800011F484E103C0853419F485E0A6D080C0E4
:107E9000853579F488D0E82EFF2485D0082F10E0AE
:107EA000102F00270E291F29000F111F8ED06801E7
:107EB0006FC0863521F484E090D080E0DECF843638
:107EC00009F040C070D06FD0082F6DD080E0C81688
:107ED00080E7D80618F4F601B7BEE895C0E0D1E017
:107EE00062D089930C17E1F7F0E0CF16F0E7DF06D8
:107EF00018F0F601B7BEE89568D007B600FCFDCFD4
:107F0000A601A0E0B1E02C9130E011968C91119780
:107F100090E0982F8827822B932B1296FA010C0160
:107F200087BEE89511244E5F5F4FF1E0A038BF0790
:107F300051F7F601A7BEE89507B600FCFDCF97BE46
:107F4000E89526C08437B1F42ED02DD0F82E2BD052
:107F50003CD0F601EF2C8F010F5F1F4F84911BD097
:107F6000EA94F801C1F70894C11CD11CFA94CF0C13
:107F7000D11C0EC0853739F428D08EE10CD085E9AC
:107F80000AD08FE07ACF813511F488E018D01DD067
:107F900080E101D065CF982F8091C00085FFFCCF94
:107FA0009093C60008958091C00087FFFCCF809118
:107FB000C00084FD01C0A8958091C6000895E0E648
:107FC000F0E098E1908380830895EDDF803219F02E
:107FD00088E0F5DFFFCF84E1DECF1F93182FE3DFCA
:107FE0001150E9F7F2DF1F91089580E0E8DFEE27F6
:047FF000FF270994CA
:027FFE00040479
:00000001FF
